:020000040800F2
:1000000000280020BD110008550F00085B0F0008F4
:10001000610F0008670F00086D0F00080000000066
:10002000000000000000000000000000730F000846
:100030007F0F0008000000008B0F0008970F0008DA
:100040000512000805120008051200080512000834
:100050000512000805120008051200080512000824
:100060000512000805120008051200080512000814
:100070000512000805120008051200080512000804
:1000800005120008051200080512000805120008F4
:1000900005120008051200080512000805120008E4
:1000A00005120008051200080512000805120008D4
:1000B000A50F000805120008000000000512000846
:1000C00005120008000000000000000005120008F2
:1000D00000000000051200080512000800000000E2
:1000E00005120008051200080512000800000000B3
:1000F0000000000000000000000000000000000000
:0C01000000000000000000005FF808F1A3
:10010C0010B5054C237833B9044B13B10448AFF345
:10011C0000800123237010BD84000020000000002B
:10012C005C28000808B5034B1BB103490348AFF327
:10013C00008008BD00000000880000205C2800083A
:10014C0080B500AF01224FF480610B4801F057FBE2
:10015C0001224FF40061084801F051FB01224FF4D9
:10016C008051054801F04BFB01224FF4005102482D
:10017C0001F045FB00BF80BD0008014080B500AF19
:10018C00374B1B78022B3FD0022B67DC002B02D0A5
:10019C00012B25D062E0002000F0F2F90346002B81
:1001AC0057D0304B1B780133DAB22E4B1A702E4BD2
:1001BC0001221A802B4B1B78042B04D9294B0122CA
:1001CC001A7000F079FA274B1B781A46264B1B88BD
:1001DC001946104600F0FAFD214B01221A7038E046
:1001EC00002000F0CDF90346002B03D11C4B00225C
:1001FC001A7030E0002000F0DDF90346002B2AD005
:10020C00174B02221A7026E0164B1B780133DAB218
:10021C00144B1A70144B01221A80124B1B78042BAE
:10022C0004D9104B01221A7000F046FA0D4B1B78C2
:10023C001A460D4B1B881946104600F0C7FD0020CE
:10024C0000F09EF90346002B07D1054B00221A70D3
:10025C0003E000BF02E000BF00E000BF00BF80BDB4
:10026C00A0000020000000200200002080B500AF9C
:10027C00394B5B78022B41D0022B6BDC002B02D06C
:10028C00012B27D066E0012000F07AF90346002B01
:10029C005BD0324B1B8801339AB2304B1A802F4BF8
:1002AC001B88632B02D92D4B01221A802B4B1B88E8
:1002BC00002B02D1294B63221A80294B1B781A463A
:1002CC00264B1B881946104600F080FD224B01225C
:1002DC005A703AE0012000F053F90346002B03D189
:1002EC001D4B00225A7032E0012000F063F90346E6
:1002FC00002B2CD0184B02225A7028E0174B1B886D
:10030C0001339AB2154B1A80144B1B88632B02D9FC
:10031C00124B01221A80114B1B88002B02D10F4B60
:10032C0063221A800E4B1B781A460C4B1B881946FD
:10033C00104600F04BFD012000F022F90346002B83
:10034C0007D1054B00225A7003E000BF02E000BF4A
:10035C0000E000BF00BF80BDA00000200200002014
:10036C000000002080B500AF394B9B78022B41D0A8
:10037C00022B6BDC002B02D0012B27D066E0022075
:10038C0000F0FEF80346002B5BD0324B1B88013B80
:10039C009AB2304B1A802F4B1B88632B02D92D4BF2
:1003AC0001221A802B4B1B88002B02D1294B632274
:1003BC001A80294B1B781A46264B1B881946104667
:1003CC0000F004FD224B01229A703AE0022000F06A
:1003DC00D7F80346002B03D11D4B00229A7032E054
:1003EC00022000F0E7F80346002B2CD0184B022219
:1003FC009A7028E0174B1B88013B9AB2154B1A8058
:10040C00144B1B88632B02D9124B01221A80114BFF
:10041C001B88002B02D10F4B63221A800E4B1B78CA
:10042C001A460C4B1B881946104600F0CFFC0220D4
:10043C0000F0A6F80346002B07D1054B00229A705A
:10044C0003E000BF02E000BF00E000BF00BF80BDC2
:10045C00A0000020020000200000002080B500AFAA
:10046C003F4BDB78022B69D0022B76DC002B02D0C1
:10047C00012B4FD071E0032000F082F80346002BD3
:10048C0066D0384B1B78022B0ED1374B1B881A4683
:10049C00920013441A4691001A460B4613449B00D3
:1004AC009BB2184600F032F92E4B1B78032B0ED161
:1004BC002D4B1B881A46920013441A4691001A467B
:1004CC000B4613449B009BB2184600F02FF9254BAA
:1004DC001B78042B0ED1244B1B881A469200134414
:1004EC001A4691001A460B4613449B009BB21846C1
:1004FC0000F02CF91C4B01221A801A4B1B781A465F
:10050C00194B1B881946104600F060FC144B012255
:10051C00DA701DE0032000F033F80346002B03D102
:10052C000F4B0022DA7015E0032000F043F803466D
:10053C00002B0FD00A4B0222DA700BE0032000F0E4
:10054C001FF80346002B07D1054B0022DA7003E09D
:10055C0000BF02E000BF00E000BF00BF80BD00BFD5
:10056C00A0000020000000200200002080B400AF9A
:10057C00024B1B781846BD4680BC7047000000201B
:10058C0080B483B000AF0346FB71FB79032B01D918
:10059C00002307E0FB79064AD35C002B0CBF012338
:1005AC000023DBB218460C37BD4680BC704700BF39
:1005BC000400002080B483B000AF0346FB71FB79CC
:1005CC00032B01D9FF2307E0FB79064AD35C012BEF
:1005DC000CBF01230023DBB218460C37BD4680BC90
:1005EC00704700BFAC00002090B583B000AF002373
:1005FC00FB714AE0FA79FB792849895C284AD15485
:10060C00FB79284A52F82320FB79274931F813301B
:10061C00FC791946104601F0DBF803461A461F4BCD
:10062C001A55FB791D4AD25CFB791D49CB5C9A4269
:10063C0028D1FA79FB791949895C1C4AD154FB7988
:10064C001A4AD35C002B14D1FB79194A32F81330B7
:10065C00632B09D8FB79164A32F81320013291B278
:10066C00134A22F813100DE0FB79124A0121D154E0
:10067C0008E0FB790E4A002122F81310FB790D4A91
:10068C000021D154FB790133FB71FB79032BB1D9D8
:10069C0000BF00BF0C37BD4690BD00BF0800002056
:1006AC000C0000201000002020000020040000207E
:1006BC00A4000020AC00002080B500AF01228021F6
:1006CC00114801F09CF801224FF480610E4801F0B2
:1006DC0096F801224FF480710B4801F090F801223A
:1006EC004FF40061084801F08AF801224FF40071C0
:1006FC00054801F084F801224FF48051024801F0C2
:10070C007EF800BF80BD00BF000C014080B483B0F8
:10071C0000AF0346FB80044AFB88138000BF0C37F4
:10072C00BD4680BC704700BF2800002080B483B059
:10073C0000AF0346FB80044AFB88138000BF0C37D4
:10074C00BD4680BC704700BF2A00002080B483B037
:10075C0000AF0346FB80044AFB88138000BF0C37B4
:10076C00BD4680BC704700BF2C00002080B582B015
:10077C0000AF0346FB8000F0ADFC0346012B11D10A
:10078C00394B1B881A46394B1B881344384A12883C
:10079C0013449BB21A46920013445B009BB218465A
:1007AC0000F060FCFFF7E2FE0346012B57D12E4B05
:1007BC001B880A2B53D02D4B1B880A2B4FD02C4B4C
:1007CC001B880A2B4BD0FA88274B1B881946274BC2
:1007DC001B880B449A420DDBFFF76EFF0022802131
:1007EC00244801F00CF800224FF48051214801F00C
:1007FC0006F834E01C4B1B88FA889A420DD3FFF79D
:10080C005BFF002280211B4800F0F9FF00224FF40F
:10081C000061184800F0F3FF21E0144B1B88FA88A4
:10082C009A420ED3FFF748FF00224FF48061114823
:10083C0000F0E5FF00224FF400710E4800F0DFFFDE
:10084C000DE0FFF739FF00224FF48061094800F0FA
:10085C00D6FF00224FF48071064800F0D0FF00BF95
:10086C000837BD4680BD00BF280000202A000020AC
:10087C002C000020000C014080B582B000AF034674
:10088C00FB8000F075FC0346012B35D1FFF76EFEA3
:10089C000346022B0AD1FFF70FFF8021184800F006
:1008AC00C6FF4FF48061164800F0C1FFFFF75EFEF3
:1008BC000346032B0BD1FFF7FFFE4FF4807110485A
:1008CC0000F0B5FF4FF400610D4800F0B0FFFFF7EA
:1008DC004DFE0346042B0BD1FFF7EEFE4FF40071D7
:1008EC00074800F0A4FF4FF48051054800F09FFF2B
:1008FC00FB88184600F004FC00BF0837BD4680BDDD
:10090C00000C014080B582B000AF00F077FC00F025
:10091C003BF800F075F800F0BFF81A4801F0D8FB6E
:10092C004FF47A73FB80FA23BB804FF47A737B808D
:10093C00FB88184600F040FBBB88184600F0E0FB33
:10094C007B88184600F08EFB00F024FAFFF7B4FE0B
:10095C00FFF7F6FBFFF712FCFFF788FCFFF702FD31
:10096C00FFF77CFDFFF702FE0346012B03D0BB888B
:10097C001846FFF781FFFB88184600F05FFB00F07C
:10098C00B3FBE7E7C400002080B590B000AF07F1DF
:10099C00180328220021184601F052FF3B1D0022AB
:1009AC001A605A609A60DA601A610223BB610123F3
:1009BC00BB621023FB6200237B6307F1180318460C
:1009CC0000F04EFF0346002B01D000F0BBF80F23C4
:1009DC007B600023BB600023FB6000233B61002392
:1009EC007B613B1D0021184601F0BAF90346002B30
:1009FC0001D000F0A7F800BF4037BD4680BD000015
:100A0C0080B586B000AF07F1080300221A605A6067
:100A1C009A60DA603B4600221A605A601D4B4FF018
:100A2C0080421A601B4B41F63F725A60194B0022F0
:100A3C009A60184B0922DA60164B00221A61154B8A
:100A4C0000229A61134801F0F3FA0346002B01D0FF
:100A5C0000F078F84FF48053BB6007F10803194697
:100A6C000C4801F089FC0346002B01D000F06AF819
:100A7C0000233B6000237B603B461946054801F090
:100A8C0051FE0346002B01D000F05CF800BF183774
:100A9C00BD4680BDC400002080B586B000AF07F114
:100AAC00080300221A605A609A60DA60224B9B6934
:100ABC00214A43F0040393611F4B9B6903F0040329
:100ACC007B607B681C4B9B691B4A43F0080393615A
:100ADC00194B9B6903F008033B603B6800224FF401
:100AEC007F51164800F08BFE002241F6FF7114482E
:100AFC0000F085FE4FF47F53BB600123FB600023A5
:100B0C003B6102237B6107F1080319460B4800F097
:100B1C00E5FC41F6FF73BB600123FB6000233B61E6
:100B2C0002237B6107F108031946054800F0D6FC47
:100B3C0000BF1837BD4680BD0010024000080140C0
:100B4C00000C014080B400AF72B600BFFEE700009D
:100B5C0080B483B000AF03463960FB713B68032B54
:100B6C0001DD00230AE0FB790A2B01D9002305E003
:100B7C00054A3B681344FA791A70012318460C375E
:100B8C00BD4680BC704700BFB000002080B584B06B
:100B9C0000AF78601B4A7B6813441B781A461A4BCB
:100BAC009B5CBB730023FB7323E0BA7BFB7B42FA99
:100BBC0003F303F00103002B0CD0FB7B134A52F818
:100BCC002300FB7B124A32F813300022194600F046
:100BDC0016FE0BE0FB7B0D4A52F82300FB7B0C4A04
:100BEC0032F813300122194600F009FEFB7B013369
:100BFC00FB73FB7B062BD8D900BF00BF1037BD465B
:100C0C0080BD00BFB0000020300000203C00002060
:100C1C005800002080B582B000AF0346FB71FB7911
:100C2C00032B00F2AB8001A252F823F0490C000810
:100C3C00990C0008E90C0008390D0008002240212D
:100C4C00514800F0DCFD012280214F4800F0D7FD17
:100C5C0001224FF480714C4800F0D1FD01224FF479
:100C6C000071494800F0CBFDFB79484A52F823301B
:100C7C00DBB2FA7911461846FFF76AFFFB79184682
:100C8C00FFF784FFFB79424A136078E00122402190
:100C9C003D4800F0B4FD002280213B4800F0AFFD40
:100CAC0001224FF48071384800F0A9FD01224FF465
:100CBC000071354800F0A3FDFB79344A52F823301B
:100CCC00DBB2FA7911461846FFF742FFFB7918465A
:100CDC00FFF75CFFFB792E4A136050E001224021A4
:100CEC00294800F08CFD01228021274800F087FD67
:100CFC0000224FF48071244800F081FD01224FF452
:100D0C000071214800F07BFDFB79204A52F823301A
:100D1C00DBB2FA7911461846FFF71AFFFB79184631
:100D2C00FFF734FFFB791A4A136028E001224021B7
:100D3C00154800F064FD01228021134800F05FFD8E
:100D4C0001224FF48071104800F059FD00224FF43D
:100D5C0000710D4800F053FDFB790C4A52F823301A
:100D6C00DBB2FA7911461846FFF7F2FEFB7918460A
:100D7C00FFF70CFFFB79064A136000E000BF00BFD1
:100D8C000837BD4680BD00BF000801406800002048
:100D9C00B400002080B500AF012240210A4800F0C9
:100DAC002EFD01228021084800F029FD01224FF47C
:100DBC008071054800F023FD01224FF400710248B8
:100DCC0000F01DFD00BF80BD0008014080B483B061
:100DDC0000AF786039607B68042B27DC164B00224F
:100DEC001A60154A7B6853603B68092B06DC124B72
:100DFC0000229A60104A3B68D36018E03B680F4AA7
:100E0C0082FB03129210DB17D31A0B4A93603968DA
:100E1C000A4B83FB01239A10CB17D21A13469B0063
:100E2C0013445B00CA1A044BDA6000E000BF0C37B5
:100E3C00BD4680BC704700BF6800002067666666D0
:100E4C0080B582B000AF78600B467B8000F0ECF888
:100E5C000346012B03D17B88184600F0ADF87B6864
:100E6C004B2B03DD0020FFF7D5FE13E07B68322B04
:100E7C0003DD0120FFF7CEFE0CE07B68192B03DDB0
:100E8C000220FFF7C7FE05E07B68002B02DD032084
:100E9C00FFF7C0FE00BF0837BD4680BD80B485B0EB
:100EAC0000AF154B9B69144A43F001039361124B3D
:100EBC009B6903F00103BB60BB680F4BDB690E4AF7
:100ECC0043F08053D3610C4BDB6903F080537B60A0
:100EDC007B680A4B5B68FB60FB6823F0E063FB609C
:100EEC00FB6843F08063FB60044AFB68536000BFFF
:100EFC001437BD4680BC7047001002400000014012
:100F0C0080B584B000AF78607B681B68B3F1804F0C
:100F1C0013D10C4BDB690B4A43F00103D361094B32
:100F2C00DB6903F00103FB60FB68002200211C203D
:100F3C0000F09DFA1C2000F0B6FA00BF1037BD4639
:100F4C0080BD00BF0010024080B400AFFEE780B44B
:100F5C0000AFFEE780B400AFFEE780B400AFFEE761
:100F6C0080B400AFFEE780B400AF00BFBD4680BCCC
:100F7C00704780B400AF00BFBD4680BC704780B4E2
:100F8C0000AF00BFBD4680BC704780B500AF00F01D
:100F9C007BF900BF80BD000080B500AF024801F0B6
:100FAC00E3F800BF80BD00BFC400002080B400AFD8
:100FBC0000BFBD4680BC704780B483B000AF034611
:100FCC00FB80FB88074AA2FB0323DB089AB2064B83
:100FDC001A80064B00221A7000BF0C37BD4680BC2D
:100FEC00704700BFCDCCCCCCB8000020BA0000209C
:100FFC0080B400AF0A4B1B88002B0CD0084B1B880D
:10100C00013B9AB2064B1A80054B1B88002B02D170
:10101C00044B01221A7000BFBD4680BC704700BF54
:10102C00B8000020BA00002080B400AF024B1B783F
:10103C001846BD4680BC7047BA00002080B582B00F
:10104C0000AF0346FB80064B1B881A46FB881946EB
:10105C001046FFF7F5FE00BF0837BD4680BD00BF48
:10106C00B800002080B483B000AF0346FB80FB883F
:10107C00074AA2FB0323DB089AB2064B1A80064BE5
:10108C0000221A7000BF0C37BD4680BC704700BFF1
:10109C00CDCCCCCCBC000020BE00002080B400AF76
:1010AC000A4B1B88002B0CD0084B1B88013B9AB2B7
:1010BC00064B1A80054B1B88002B02D1044B0122D6
:1010CC001A7000BFBD4680BC704700BFBC0000203A
:1010DC00BE00002080B400AF024B1B781846BD4602
:1010EC0080BC7047BE00002080B500AF034B1B884E
:1010FC001846FFF73BFB00BF80BD00BFBC000020C3
:10110C0080B483B000AF0346FB80FB88074AA2FB88
:10111C000323DB089AB2064B1A80064B00221A7086
:10112C0000BF0C37BD4680BC704700BFCDCCCCCCCB
:10113C00C0000020C200002080B400AF0A4B1B8806
:10114C00002B0CD0084B1B88013B9AB2064B1A8023
:10115C00054B1B88002B02D1044B01221A7000BFD7
:10116C00BD4680BC704700BFC0000020C2000020FC
:10117C0080B400AF024B1B781846BD4680BC70474C
:10118C00C200002080B582B000AF78607B681B681D
:10119C00B3F1804F07D1FFF727FAFFF729FFFFF7CD
:1011AC007DFFFFF7C9FF00BF0837BD4680BD0000BB
:1011BC000C480D490D4A002302E0D458C4500433A6
:1011CC00C4188C42F9D30A4A0A4C002301E013607C
:1011DC000432A242FBD3FFF7E9FE01F00DFBFFF74F
:1011EC0091FB704700000020840000209C28000820
:1011FC008400002010010020FEE7000080B500AF45
:10120C00084B1B68074A43F010031360032000F0DF
:10121C0023F90F2000F008F8FFF740FE00231846D2
:10122C0080BD00BF0020024080B582B000AF786066
:10123C00124B1A68124B1B7819464FF47A73B3FB96
:10124C00F1F3B2FBF3F3184600F03BF90346002B25
:10125C0001D001230EE07B680F2B0AD8002279689D
:10126C004FF0FF3000F003F9064A7B68136000234F
:10127C0000E0012318460837BD4680BD78000020E9
:10128C00800000207C00002080B400AF054B1B7850
:10129C001A46054B1B681344034A136000BFBD4636
:1012AC0080BC7047800000200C01002080B400AF8F
:1012BC00024B1B681846BD4680BC70470C010020D1
:1012CC0080B485B000AF78607B6803F00703FB60E7
:1012DC000C4BDB68BB60BA684FF6FF031340BB6076
:1012EC00FB681A02BB68134343F0BF6343F400333B
:1012FC00BB60044ABB68D36000BF1437BD4680BCDA
:10130C00704700BF00ED00E080B400AF044BDB6819
:10131C001B0A03F007031846BD4680BC704700BF8C
:10132C0000ED00E080B483B000AF0346FB7197F989
:10133C000730002B0BDBFB7903F01F02064997F9F2
:10134C0007305B09012000FA02F241F8232000BFAC
:10135C000C37BD4680BC704700E100E080B483B020
:10136C0000AF03463960FB7197F90730002B0ADB9D
:10137C003B68DAB20C4997F907301201D2B20B4430
:10138C0083F800230AE03B68DAB20849FB7903F0E2
:10139C000F03043B1201D2B20B441A7600BF0C3778
:1013AC00BD4680BC704700BF00E100E000ED00E0EE
:1013BC0080B489B000AFF860B9607A60FB6803F064
:1013CC000703FB61FB69C3F10703042B28BF04234C
:1013DC00BB61FB690433062B02D9FB69033B00E0BC
:1013EC0000237B614FF0FF32BB6902FA03F3DA434F
:1013FC00BB681A407B699A404FF0FF317B6901FA58
:10140C0003F3D9437B680B40134318462437BD467E
:10141C0080BC704780B582B000AF78607B68013BC0
:10142C00B3F1807F01D301230FE00A4A7B68013BB3
:10143C0053600F214FF0FF30FFF790FF054B002258
:10144C009A60044B07221A60002318460837BD46E1
:10145C0080BD00BF10E000E080B582B000AF7860C6
:10146C007868FFF72DFF00BF0837BD4680BD80B5FB
:10147C0086B000AF0346B9607A60FB7300237B61D2
:10148C00FFF742FF78617A68B9687869FFF790FFD7
:10149C00024697F90F3011461846FFF75FFF00BF61
:1014AC001837BD4680BD80B582B000AF0346FB71D6
:1014BC0097F907301846FFF735FF00BF0837BD46D0
:1014CC0080BD80B582B000AF78607868FFF7A2FF6E
:1014DC00034618460837BD4680BD000080B48BB06B
:1014EC0000AF7860396000237B6200233B6248E1E7
:1014FC0001227B6A02FA03F3FB613B681B68FA6901
:10150C001340BB61BA69FB699A4240F037813B6872
:10151C005B68A34A93425ED0A14A934275D8A14A14
:10152C00934258D09F4A93426FD89F4A934252D0CD
:10153C009D4A934269D89D4A93424CD09B4A934210
:10154C0063D89B4A934246D0994A93425DD8122B5A
:10155C002AD8122B59D801A252F823F0E31500080F
:10156C00BD150008CF150008111600081716000845
:10157C00171600081716000817160008171600088B
:10158C00171600081716000817160008171600087B
:10159C00171600081716000817160008171600086B
:1015AC00C5150008D9150008824A934213D02CE0C7
:1015BC003B68DB683B6229E03B68DB6804333B62D9
:1015CC0024E03B68DB6808333B621FE03B68DB6868
:1015DC000C333B621AE03B689B68002B02D104235E
:1015EC003B6213E03B689B68012B05D108233B62EF
:1015FC007B68FA691A6109E008233B627B68FA6927
:10160C005A6103E000233B6200E000BFBB69FF2B83
:10161C0001D87B6801E07B6804337B61BB69FF2BDD
:10162C0002D87B6A9B0002E07B6A083B9B003B6113
:10163C007B691A680F213B6901FA03F3DB431A40FB
:10164C00396A3B6901FA03F31A437B691A603B68F8
:10165C005B6803F08053002B00F09080564B9B6925
:10166C00554A43F001039361534B9B6903F001030B
:10167C00BB60BB68514A7B6A9B08023352F823302B
:10168C00FB607B6A03F003039B000F2202FA03F357
:10169C00DB43FA681340FB607B68494A93420DD0E8
:1016AC007B68484A934207D07B68474A934201D1F2
:1016BC00022304E0032302E0012300E000237A6A02
:1016CC0002F0030292009340FA681343FB603B491B
:1016DC007B6A9B080233FA6841F823203B685B68FD
:1016EC0003F48033002B06D0384B1A683749BB699A
:1016FC0013430B6006E0354B1A68BB69DB43334977
:10170C0013400B603B685B6803F40033002B06D07E
:10171C002E4B5A682D49BB6913434B6006E02B4B8B
:10172C005A68BB69DB43294913404B603B685B68D3
:10173C0003F48013002B06D0244B9A682349BB6911
:10174C0013438B6006E0214B9A68BB69DB431F494E
:10175C0013408B603B685B6803F40013002B06D0CE
:10176C001A4BDA681949BB691343CB6006E0174B77
:10177C00DA68BB69DB4315491340CB607B6A0133E4
:10178C007B623B681A687B6A22FA03F3002B7FF4B6
:10179C00AFAE00BF00BF2C37BD4680BC704700BF4A
:1017AC000000321000003110000022100000211047
:1017BC000000121000001110001002400000014047
:1017CC0000080140000C01400010014000040140E1
:1017DC0080B485B000AF78600B467B807B689A68DC
:1017EC007B881340002B02D00123FB7301E0002304
:1017FC00FB73FB7B18461437BD4680BC704780B426
:10180C0083B000AF78600B467B8013467B707B788F
:10181C00002B03D07A887B681A6103E07B881A045A
:10182C007B681A6100BF0C37BD4680BC704780B422
:10183C0085B000AF78600B467B807B68DB68FB6013
:10184C007A88FB6813401A04FB68D9437B880B40E9
:10185C001A437B681A6100BF1437BD4680BC7047C1
:10186C0080B586B000AF78607B68002B01D1012376
:10187C006CE27B681B6803F00103002B00F087808F
:10188C00924B5B6803F00C03042B0CD08F4B5B6802
:10189C0003F00C03082B12D18C4B5B6803F48033E0
:1018AC00B3F5803F0BD1894B1B6803F40033002B3D
:1018BC006CD07B685B68002B68D1012346E27B68A7
:1018CC005B68B3F5803F06D1804B1B687F4A43F4BD
:1018DC00803313602EE07B685B68002B0CD17B4B54
:1018EC001B687A4A23F480331360784B1B68774A61
:1018FC0023F4802313601DE07B685B68B3F5A02F95
:10190C000CD1724B1B68714A43F4802313606F4BEC
:10191C001B686E4A43F4803313600BE06B4B1B68FF
:10192C006A4A23F480331360684B1B68674A23F4BC
:10193C00802313607B685B68002B13D0FFF7B6FC29
:10194C00386108E0FFF7B2FC02463B69D31A642BFE
:10195C0001D90323FAE15D4B1B6803F40033002B20
:10196C00F0D014E0FFF7A2FC386108E0FFF79EFC12
:10197C0002463B69D31A642B01D90323E6E1534B8E
:10198C001B6803F40033002BF0D100E000BF7B6830
:10199C001B6803F00203002B63D04C4B5B6803F015
:1019AC000C03002B0BD0494B5B6803F00C03082B8A
:1019BC001CD1464B5B6803F48033002B16D1434B90
:1019CC001B6803F00203002B05D07B681B69012BFD
:1019DC0001D00123BAE13D4B1B6823F0F8027B6870
:1019EC005B69DB00394913430B603AE07B681B6988
:1019FC00002B20D0364B01221A60FFF757FC3861C0
:101A0C0008E0FFF753FC02463B69D31A022B01D9BD
:101A1C0003239BE12D4B1B6803F00203002BF0D03A
:101A2C002A4B1B6823F0F8027B685B69DB002749B3
:101A3C0013430B6015E0264B00221A60FFF736FCAF
:101A4C00386108E0FFF732FC02463B69D31A022BDF
:101A5C0001D903237AE11D4B1B6803F00203002B11
:101A6C00F0D17B681B6803F00803002B3AD07B682D
:101A7C009B69002B19D0174B01221A60FFF716FC3B
:101A8C00386108E0FFF712FC02463B69D31A022BBF
:101A9C0001D903235AE10D4B5B6A03F00203002BBF
:101AAC00F0D0012000F0A6FA1CE00A4B00221A60CC
:101ABC00FFF7FCFB38610FE0FFF7F8FB02463B69D0
:101ACC00D31A022B08D9032340E100BF00100240B7
:101ADC0000004242800442429E4B5B6A03F00203C8
:101AEC00002BE9D17B681B6803F00403002B00F08A
:101AFC00A6800023FB75974BDB6903F08053002B0A
:101B0C000DD1944BDB69934A43F08053D361914BD5
:101B1C00DB6903F08053BB60BB680123FB758E4B04
:101B2C001B6803F48073002B18D18B4B1B688A4AFB
:101B3C0043F480731360FFF7B9FB386108E0FFF7DB
:101B4C00B5FB02463B69D31A642B01D90323FDE094
:101B5C00814B1B6803F48073002BF0D07B68DB682F
:101B6C00012B06D17B4B1B6A7A4A43F001031362AB
:101B7C002DE07B68DB68002B0CD1764B1B6A754A19
:101B8C0023F001031362734B1B6A724A23F00403A4
:101B9C0013621CE07B68DB68052B0CD16D4B1B6A58
:101BAC006C4A43F0040313626A4B1B6A694A43F0A4
:101BBC00010313620BE0674B1B6A664A23F00103B7
:101BCC001362644B1B6A634A23F0040313627B6841
:101BDC00DB68002B15D0FFF769FB38610AE0FFF7D3
:101BEC0065FB02463B69D31A41F28832934201D914
:101BFC000323ABE0574B1B6A03F00203002BEED020
:101C0C0014E0FFF753FB38610AE0FFF74FFB024685
:101C1C003B69D31A41F28832934201D9032395E0F0
:101C2C004C4B1B6A03F00203002BEED1FB7D012B06
:101C3C0005D1484BDB69474A23F08053D3617B685D
:101C4C00DB69002B00F08180424B5B6803F00C03D6
:101C5C00082B61D07B68DB69022B46D13F4B0022FD
:101C6C001A60FFF723FB386108E0FFF71FFB024601
:101C7C003B69D31A022B01D9032367E0354B1B6850
:101C8C0003F00073002BF0D17B681B6AB3F5803F27
:101C9C0008D1304B5B6823F400327B689B682D497C
:101CAC0013434B602B4B5B6823F474127B68196AEB
:101CBC007B685B6A0B43274913434B60274B01221C
:101CCC001A60FFF7F3FA386108E0FFF7EFFA024603
:101CDC003B69D31A022B01D9032337E01D4B1B6838
:101CEC0003F00073002BF0D02FE01C4B00221A6085
:101CFC00FFF7DCFA386108E0FFF7D8FA02463B69D7
:101D0C00D31A022B01D9032320E0124B1B6803F0DA
:101D1C000073002BF0D118E07B68DB69012B01D13B
:101D2C00012313E00B4B5B68FB60FB6803F4803210
:101D3C007B681B6A9A4206D1FB6803F470127B68BD
:101D4C005B6A9A4201D0012300E000231846183741
:101D5C00BD4680BD00100240007000406000424251
:101D6C0080B584B000AF786039607B68002B01D1FE
:101D7C000123D0E06A4B1B6803F007033A689A42D0
:101D8C0010D9674B1B6823F0070265493B68134366
:101D9C000B60634B1B6803F007033A689A4201D04F
:101DAC000123B8E07B681B6803F00203002B20D0F2
:101DBC007B681B6803F00403002B05D0594B5B6850
:101DCC00584A43F4E06353607B681B6803F00803D4
:101DDC00002B05D0534B5B68524A43F4605353605D
:101DEC00504B5B6823F0F0027B689B684D491343B2
:101DFC004B607B681B6803F00103002B40D07B68B1
:101E0C005B68012B07D1474B1B6803F40033002B95
:101E1C0015D101237FE07B685B68022B07D1414B16
:101E2C001B6803F00073002B09D1012373E03D4BB9
:101E3C001B6803F00203002B01D101236BE0394B2B
:101E4C005B6823F003027B685B68364913434B6085
:101E5C00FFF72CFAF8600AE0FFF728FA0246FB6855
:101E6C00D31A41F28832934201D9032353E02D4B0C
:101E7C005B6803F00C027B685B689B009A42EBD1B9
:101E8C00274B1B6803F007033A689A4210D2244B85
:101E9C001B6823F0070222493B6813430B60204B5D
:101EAC001B6803F007033A689A4201D0012332E021
:101EBC007B681B6803F00403002B08D0194B5B688C
:101ECC0023F4E0627B68DB68164913434B607B6844
:101EDC001B6803F00803002B09D0124B5B6823F43A
:101EEC0060527B681B69DB000E4913434B6000F0AA
:101EFC0021F802460B4B5B681B0903F00F030A49E0
:101F0C00CB5C22FA03F3094A1360094B1B68184691
:101F1C00FFF78AF9002318461037BD4680BD00BF75
:101F2C0000200240001002408428000878000020A5
:101F3C007C00002090B48AB000AF2A4B3C1D0FCB24
:101F4C0084E80F0040F201233B800023FB61002357
:101F5C00BB6100237B6200237B6100233B62224B2D
:101F6C005B68FB61FB6903F00C03042B02D0082BAC
:101F7C0003D02DE01D4B3B622DE0FB699B0C03F065
:101F8C000F0307F12802134413F8243C7B61FB690F
:101F9C0003F48033002B13D0134B5B685B0C03F002
:101FAC00010307F12802134413F8283CBB617B6939
:101FBC000E4A02FB03F2BB69B2FBF3F37B6204E053
:101FCC007B690B4A02FB03F37B627B6A3B6202E098
:101FDC00064B3B6200BF3B6A18462837BD4690BC97
:101FEC00704700BF742800080010024000127A00ED
:101FFC0000093D0080B485B000AF78600A4B1B68C7
:10200C000A4AA2FB03235B0A7A6802FB03F3FB6018
:10201C0000BFFB685A1EFA60002BF9D100BF00BF4D
:10202C001437BD4680BC704778000020D34D621039
:10203C0080B582B000AF78607B68002B01D10123A2
:10204C0041E07B6893F83D30DBB2002B06D17B6816
:10205C00002283F83C207868FEF752FF7B6802224E
:10206C0083F83D207B681A687B6804331946104658
:10207C0000F06AFA7B68012283F846207B68012213
:10208C0083F83E207B68012283F83F207B68012285
:10209C0083F840207B68012283F841207B68012271
:1020AC0083F842207B68012283F843207B6801225D
:1020BC0083F844207B68012283F845207B68012249
:1020CC0083F83D20002318460837BD4680BD00002C
:1020DC0080B485B000AF78607B6893F83D30DBB29C
:1020EC00012B01D0012335E07B68022283F83D20CF
:1020FC007B681B68DA687B681B6842F00102DA6057
:10210C007B681B68164A934209D07B681B68B3F145
:10211C00804F04D07B681B68124A934211D17B68B4
:10212C001B689B6803F00703FB60FB68062B10D051
:10213C007B681B681A687B681B6842F001021A6096
:10214C0007E07B681B681A687B681B6842F0010219
:10215C001A60002318461437BD4680BC704700BF78
:10216C00002C01400004004080B582B000AF7860C4
:10217C007B681B681B6903F00203022B22D17B686E
:10218C001B68DB6803F00203022B1BD17B681B6806
:10219C006FF002021A617B6801221A777B681B6858
:1021AC009B6903F00303002B03D0786800F0B1F9AE
:1021BC0005E0786800F0A4F9786800F0B3F97B6862
:1021CC0000221A777B681B681B6903F00403042B3D
:1021DC0022D17B681B68DB6803F00403042B1BD142
:1021EC007B681B686FF004021A617B6802221A7705
:1021FC007B681B689B6903F44073002B03D07868E1
:10220C0000F087F905E0786800F07AF9786800F05A
:10221C0089F97B6800221A777B681B681B6903F0BD
:10222C000803082B22D17B681B68DB6803F00803CA
:10223C00082B1BD17B681B686FF008021A617B6846
:10224C0004221A777B681B68DB6903F00303002BFD
:10225C0003D0786800F05DF905E0786800F050F97B
:10226C00786800F05FF97B6800221A777B681B683E
:10227C001B6903F01003102B22D17B681B68DB68F1
:10228C0003F01003102B1BD17B681B686FF010023E
:10229C001A617B6808221A777B681B68DB6903F478
:1022AC004073002B03D0786800F033F905E07868B0
:1022BC0000F026F9786800F035F97B6800221A776F
:1022CC007B681B681B6903F00103012B0ED17B6833
:1022DC001B68DB6803F00103012B07D17B681B68CB
:1022EC006FF001021A617868FEF74CFF7B681B687F
:1022FC001B6903F08003802B0ED17B681B68DB68A5
:10230C0003F08003802B07D17B681B686FF0800281
:10231C001A61786800F067FA7B681B681B6903F028
:10232C004003402B0ED17B681B68DB6803F0400335
:10233C00402B07D17B681B686FF040021A617868EC
:10234C0000F0F9F87B681B681B6903F02003202B55
:10235C000ED17B681B68DB6803F02003202B07D1B0
:10236C007B681B686FF020021A61786800F032FA03
:10237C0000BF0837BD4680BD80B584B000AF786023
:10238C0039607B6893F83C30012B01D10223B3E018
:10239C007B68012283F83C207B68022283F83D2075
:1023AC007B681B689B68FB60FB6823F07703FB6012
:1023BC00FB6823F47F43FB607B681B68FA689A60B8
:1023CC003B681B68B3F5005F3ED0B3F5005F00F2CD
:1023DC008780B3F5805F00F08580B3F5805F7FD890
:1023EC00702B1AD0702B7BD8602B50D0602B77D8E9
:1023FC00502B3CD0502B73D8402B58D0402B6FD83F
:10240C00302B64D0302B6BD8202B60D0202B67D88E
:10241C00002B5CD0102B5AD062E07B6818683B68AC
:10242C0099683B685A683B68DB6800F05CF97B682C
:10243C001B689B68FB60FB6843F07703FB607B6861
:10244C001B68FA689A604EE07B6818683B6899686C
:10245C003B685A683B68DB6800F045F97B681B6891
:10246C009A687B681B6842F480429A603BE07B6808
:10247C0018683B6859683B68DB681A4600F0BCF882
:10248C007B681B685021184600F013F92BE07B6821
:10249C0018683B6859683B68DB681A4600F0DAF844
:1024AC007B681B686021184600F003F91BE07B6811
:1024BC0018683B6859683B68DB681A4600F09CF862
:1024CC007B681B684021184600F0F3F80BE07B6832
:1024DC001A683B681B681946104600F0EAF802E0DF
:1024EC0000BF00E000BF7B68012283F83D207B68C1
:1024FC00002283F83C20002318461037BD4680BDCF
:10250C0080B483B000AF786000BF0C37BD4680BC90
:10251C00704780B483B000AF786000BF0C37BD4605
:10252C0080BC704780B483B000AF786000BF0C37BC
:10253C00BD4680BC704780B483B000AF786000BFEC
:10254C000C37BD4680BC704780B485B000AF786056
:10255C0039607B681B68FB607B68254A934207D017
:10256C007B68B3F1804F03D07B68224A934208D139
:10257C00FB6823F07003FB603B685B68FA681343ED
:10258C00FB607B681A4A934207D07B68B3F1804F9B
:10259C0003D07B68174A934208D1FB6823F440733D
:1025AC00FB603B68DB68FA681343FB60FB6823F055
:1025BC0080023B685B691343FB607B68FA681A60B6
:1025CC003B689A687B68DA623B681A687B689A6237
:1025DC007B68074A934203D13B681A697B681A638C
:1025EC007B6801225A6100BF1437BD4680BC70471E
:1025FC00002C01400004004080B487B000AFF860AC
:10260C00B9607A60FB681B6A7B61FB681B6A23F00C
:10261C000102FB681A62FB689B693B613B6923F012
:10262C00F0033B617B681B013A6913433B617B6997
:10263C0023F00A037B617A69BB6813437B61FB68F7
:10264C003A699A61FB687A691A6200BF1C37BD4609
:10265C0080BC704780B487B000AFF860B9607A6016
:10266C00FB681B6A23F01002FB681A62FB689B690B
:10267C007B61FB681B6A3B617B6923F470437B6164
:10268C007B681B037A6913437B613B6923F0A003CE
:10269C003B61BB681B013A6913433B61FB687A6978
:1026AC009A61FB683A691A6200BF1C37BD4680BC50
:1026BC00704780B485B000AF786039607B689B68E8
:1026CC00FB60FB6823F07003FB603A68FB68134304
:1026DC0043F00703FB607B68FA689A6000BF14370D
:1026EC00BD4680BC704780B487B000AFF860B9605D
:1026FC007A603B60FB689B687B617B6923F47F435A
:10270C007B613B681A027B681A43BB6813437A6986
:10271C0013437B61FB687A699A6000BF1C37BD4626
:10272C0080BC704780B485B000AF786039607B683E
:10273C0093F83C30012B01D1022341E07B6801224C
:10274C0083F83C207B68022283F83D207B681B6861
:10275C005B68FB607B681B689B68BB60FB6823F055
:10276C007003FB603B681B68FA681343FB607B6873
:10277C001B68FA685A607B681B68144A934209D03C
:10278C007B681B68B3F1804F04D07B681B68104AD0
:10279C0093420CD1BB6823F08003BB603B685B6841
:1027AC00BA681343BB607B681B68BA689A607B6825
:1027BC00012283F83D207B68002283F83C20002313
:1027CC0018461437BD4680BC704700BF002C014032
:1027DC000004004080B483B000AF786000BF0C37B9
:1027EC00BD4680BC704780B483B000AF786000BF3A
:1027FC000C37BD4680BC704770B500260C4D0D4C97
:10280C00641BA410A64209D100F022F800260A4D40
:10281C000A4C641BA410A64205D170BD55F8043BAC
:10282C0098470136EEE755F8043B98470136F2E736
:10283C009428000894280008942800089828000878
:10284C0003460244934200D1704703F8011BF9E799
:10285C00F8B500BFF8BC08BC9E467047F8B500BF81
:08286C00F8BC08BC9E46704751
:1028740002030405060708090A0B0C0D0E0F1010BD
:10288400000000000000000001020304060708091C
:042894003101000806
:042898000D01000826
:10289C00010001000101010101010101010101011E
:1028AC0000080140000801400008014000080140F8
:1028BC0000040008001000200A000A000A000000B2
:1028CC003F065B4F666D7D077F6F0000000C01407B
:1028DC00000C0140000C0140000C0140000C0140B8
:1028EC00000C0140000C0140010002000400080033
:1028FC00100020004000000000000000010000005B
:10290C0000000000010000000024F4001000000092
:04291C0001000000B6
:04000005080011BD21
:00000001FF
